{"project/contracts/Voting.sol":{"Voting":{"abi":[{"inputs":[{"internalType":"address","name":"_tokenAddress","type":"address"},{"internalType":"uint256","name":"_votingPeriod","type":"uint256"}],"stateMutability":"nonpayable","type":"constructor"},{"inputs":[],"name":"AlreadyVoted","type":"error"},{"inputs":[],"name":"NoVotingPower","type":"error"},{"inputs":[],"name":"NotToken","type":"error"},{"inputs":[],"name":"VotingClosed","type":"error"},{"inputs":[],"name":"VotingNotEnded","type":"error"},{"anonymous":false,"inputs":[{"indexed":true,"internalType":"address","name":"voter","type":"address"},{"indexed":false,"internalType":"bool","name":"vote","type":"bool"},{"indexed":false,"internalType":"uint256","name":"weight","type":"uint256"}],"name":"VoteCasted","type":"event"},{"anonymous":false,"inputs":[{"indexed":true,"internalType":"address","name":"voter","type":"address"},{"indexed":false,"internalType":"uint256","name":"weight","type":"uint256"}],"name":"VotesRemoved","type":"event"},{"inputs":[],"name":"getResult","outputs":[{"internalType":"bool","name":"","type":"bool"}],"stateMutability":"view","type":"function"},{"inputs":[{"internalType":"address","name":"voter","type":"address"}],"name":"removeVotes","outputs":[],"stateMutability":"nonpayable","type":"function"},{"inputs":[],"name":"token","outputs":[{"internalType":"contract IERC20","name":"","type":"address"}],"stateMutability":"view","type":"function"},{"inputs":[{"internalType":"bool","name":"_vote","type":"bool"}],"name":"vote","outputs":[],"stateMutability":"nonpayable","type":"function"},{"inputs":[{"internalType":"address","name":"","type":"address"}],"name":"voteState","outputs":[{"internalType":"uint8","name":"","type":"uint8"}],"stateMutability":"view","type":"function"},{"inputs":[],"name":"votesAgainst","outputs":[{"internalType":"uint256","name":"v","type":"uint256"}],"stateMutability":"view","type":"function"},{"inputs":[],"name":"votesFor","outputs":[{"internalType":"uint256","name":"v","type":"uint256"}],"stateMutability":"view","type":"function"},{"inputs":[],"name":"votingDeadline","outputs":[{"internalType":"uint256","name":"","type":"uint256"}],"stateMutability":"view","type":"function"}],"evm":{"bytecode":{"linkReferences":{},"object":"60c060405234801561000f575f5ffd5b5060405161060638038061060683398101604081905261002e91610050565b6001600160a01b0382166080526100458142610087565b60a052506100ac9050565b5f5f60408385031215610061575f5ffd5b82516001600160a01b0381168114610077575f5ffd5b6020939093015192949293505050565b808201808211156100a657634e487b7160e01b5f52601160045260245ffd5b92915050565b60805160a0516105176100ef5f395f8181608e01528181610204015261043b01525f8181610147015281816101ab01528181610313015261036b01526105175ff3fe608060405234801561000f575f5ffd5b5060043610610085575f3560e01c8063a2ca6dce11610058578063a2ca6dce14610117578063de2927891461012a578063fc0c546a14610142578063fd4f623c14610181575f5ffd5b8063036ee850146100895780631a5b6774146100c35780634b9f5c98146100f757806391b4384d1461010c575b5f5ffd5b6100b07f000000000000000000000000000000000000000000000000000000000000000081565b6040519081526020015b60405180910390f35b6100e56100d1366004610495565b5f6020819052908152604090205460ff1681565b60405160ff90911681526020016100ba565b61010a6101053660046104c2565b610192565b005b60015460801c6100b0565b61010a610125366004610495565b610308565b610132610438565b60405190151581526020016100ba565b6101697f000000000000000000000000000000000000000000000000000000000000000081565b6040516001600160a01b0390911681526020016100ba565b6001546001600160801b03166100b0565b6040516370a0823160e01b815233600482018190525f917f00000000000000000000000000000000000000000000000000000000000000009190602084602483865afa6101dd575f5ffd5b505f519250825f0361020257604051631f05dadd60e21b815260040160405180910390fd5b7f000000000000000000000000000000000000000000000000000000000000000042106102425760405163335b65a560e11b815260040160405180910390fd5b604080518281525f6020820152205460ff16801561027357604051637c9a1cf960e01b815260040160405180910390fd5b6001805486600181146102a1578660801b820191506040518581525f602082015260016040822055506102b8565b604080518681525f60208201522060029055908601905b509055604080518615158152602081018690526001600160a01b038416917f5fd1c37ed935a6ab7944ecc8fe147688ca52d9a5d72df467df1120d5f03b7dde910160405180910390a25050505050565b336001600160a01b037f000000000000000000000000000000000000000000000000000000000000000016146103515760405163087cada760e21b815260040160405180910390fd5b604080518281525f60208201819052918120805460ff16917f00000000000000000000000000000000000000000000000000000000000000009183156103dd576370a0823160e01b825285600483015260205f602484865afa6103b2575f5ffd5b5f5194506001805485600281146103d0578760801b820391506103d6565b87820391505b5090555f81555b50508160ff165f036103ef5750505050565b836001600160a01b03167f074d1bb241e69cea6778cd22197f869e97c3e5c5fda50b71912d4b0c83e88f0a8460405161042a91815260200190565b60405180910390a250505050565b5f7f000000000000000000000000000000000000000000000000000000000000000042101561047a57604051633fc30bd160e11b815260040160405180910390fd5b506001546001600160801b03600160801b8204811691161190565b5f602082840312156104a5575f5ffd5b81356001600160a01b03811681146104bb575f5ffd5b9392505050565b5f602082840312156104d2575f5ffd5b813580151581146104bb575f5ffdfea2646970667358221220c31d982372f79d6861ebde4c3eba84e6b82fdc23794fbdb5b591d0d7f4e108a564736f6c634300081e0033","opcodes":"PUSH1 0xC0 PUSH1 0x40 MSTORE CALLVALUE DUP1 ISZERO PUSH2 0xF JUMPI PUSH0 PUSH0 REVERT JUMPDEST POP PUSH1 0x40 MLOAD PUSH2 0x606 CODESIZE SUB DUP1 PUSH2 0x606 DUP4 CODECOPY DUP2 ADD PUSH1 0x40 DUP2 SWAP1 MSTORE PUSH2 0x2E SWAP2 PUSH2 0x50 JUMP JUMPDEST PUSH1 0x1 PUSH1 0x1 PUSH1 0xA0 SHL SUB DUP3 AND PUSH1 0x80 MSTORE PUSH2 0x45 DUP2 TIMESTAMP PUSH2 0x87 JUMP JUMPDEST PUSH1 0xA0 MSTORE POP PUSH2 0xAC SWAP1 POP JUMP JUMPDEST PUSH0 PUSH0 PUSH1 0x40 DUP4 DUP6 SUB SLT ISZERO PUSH2 0x61 JUMPI PUSH0 PUSH0 REVERT JUMPDEST DUP3 MLOAD PUSH1 0x1 PUSH1 0x1 PUSH1 0xA0 SHL SUB DUP2 AND DUP2 EQ PUSH2 0x77 JUMPI PUSH0 PUSH0 REVERT JUMPDEST PUSH1 0x20 SWAP4 SWAP1 SWAP4 ADD MLOAD SWAP3 SWAP5 SWAP3 SWAP4 POP POP POP JUMP JUMPDEST DUP1 DUP3 ADD DUP1 DUP3 GT ISZERO PUSH2 0xA6 JUMPI PUSH4 0x4E487B71 PUSH1 0xE0 SHL PUSH0 MSTORE PUSH1 0x11 PUSH1 0x4 MSTORE PUSH1 0x24 PUSH0 REVERT JUMPDEST SWAP3 SWAP2 POP POP JUMP JUMPDEST PUSH1 0x80 MLOAD PUSH1 0xA0 MLOAD PUSH2 0x517 PUSH2 0xEF PUSH0 CODECOPY PUSH0 DUP2 DUP2 PUSH1 0x8E ADD MSTORE DUP2 DUP2 PUSH2 0x204 ADD MSTORE PUSH2 0x43B ADD MSTORE PUSH0 DUP2 DUP2 PUSH2 0x147 ADD MSTORE DUP2 DUP2 PUSH2 0x1AB ADD MSTORE DUP2 DUP2 PUSH2 0x313 ADD MSTORE PUSH2 0x36B ADD MSTORE PUSH2 0x517 PUSH0 RETURN INVALID PUSH1 0x80 PUSH1 0x40 MSTORE CALLVALUE DUP1 ISZERO PUSH2 0xF JUMPI PUSH0 PUSH0 REVERT JUMPDEST POP PUSH1 0x4 CALLDATASIZE LT PUSH2 0x85 JUMPI PUSH0 CALLDATALOAD PUSH1 0xE0 SHR DUP1 PUSH4 0xA2CA6DCE GT PUSH2 0x58 JUMPI DUP1 PUSH4 0xA2CA6DCE EQ PUSH2 0x117 JUMPI DUP1 PUSH4 0xDE292789 EQ PUSH2 0x12A JUMPI DUP1 PUSH4 0xFC0C546A EQ PUSH2 0x142 JUMPI DUP1 PUSH4 0xFD4F623C EQ PUSH2 0x181 JUMPI PUSH0 PUSH0 REVERT JUMPDEST DUP1 PUSH4 0x36EE850 EQ PUSH2 0x89 JUMPI DUP1 PUSH4 0x1A5B6774 EQ PUSH2 0xC3 JUMPI DUP1 PUSH4 0x4B9F5C98 EQ PUSH2 0xF7 JUMPI DUP1 PUSH4 0x91B4384D EQ PUSH2 0x10C JUMPI JUMPDEST PUSH0 PUSH0 REVERT JUMPDEST PUSH2 0xB0 PUSH32 0x0 DUP2 JUMP JUMPDEST PUSH1 0x40 MLOAD SWAP1 DUP2 MSTORE PUSH1 0x20 ADD JUMPDEST PUSH1 0x40 MLOAD DUP1 SWAP2 SUB SWAP1 RETURN JUMPDEST PUSH2 0xE5 PUSH2 0xD1 CALLDATASIZE PUSH1 0x4 PUSH2 0x495 JUMP JUMPDEST PUSH0 PUSH1 0x20 DUP2 SWAP1 MSTORE SWAP1 DUP2 MSTORE PUSH1 0x40 SWAP1 KECCAK256 SLOAD PUSH1 0xFF AND DUP2 JUMP JUMPDEST PUSH1 0x40 MLOAD PUSH1 0xFF SWAP1 SWAP2 AND DUP2 MSTORE PUSH1 0x20 ADD PUSH2 0xBA JUMP JUMPDEST PUSH2 0x10A PUSH2 0x105 CALLDATASIZE PUSH1 0x4 PUSH2 0x4C2 JUMP JUMPDEST PUSH2 0x192 JUMP JUMPDEST STOP JUMPDEST PUSH1 0x1 SLOAD PUSH1 0x80 SHR PUSH2 0xB0 JUMP JUMPDEST PUSH2 0x10A PUSH2 0x125 CALLDATASIZE PUSH1 0x4 PUSH2 0x495 JUMP JUMPDEST PUSH2 0x308 JUMP JUMPDEST PUSH2 0x132 PUSH2 0x438 JUMP JUMPDEST PUSH1 0x40 MLOAD SWAP1 ISZERO ISZERO DUP2 MSTORE PUSH1 0x20 ADD PUSH2 0xBA JUMP JUMPDEST PUSH2 0x169 PUSH32 0x0 DUP2 JUMP JUMPDEST PUSH1 0x40 MLOAD PUSH1 0x1 PUSH1 0x1 PUSH1 0xA0 SHL SUB SWAP1 SWAP2 AND DUP2 MSTORE PUSH1 0x20 ADD PUSH2 0xBA JUMP JUMPDEST PUSH1 0x1 SLOAD PUSH1 0x1 PUSH1 0x1 PUSH1 0x80 SHL SUB AND PUSH2 0xB0 JUMP JUMPDEST PUSH1 0x40 MLOAD PUSH4 0x70A08231 PUSH1 0xE0 SHL DUP2 MSTORE CALLER PUSH1 0x4 DUP3 ADD DUP2 SWAP1 MSTORE PUSH0 SWAP2 PUSH32 0x0 SWAP2 SWAP1 PUSH1 0x20 DUP5 PUSH1 0x24 DUP4 DUP7 GAS STATICCALL PUSH2 0x1DD JUMPI PUSH0 PUSH0 REVERT JUMPDEST POP PUSH0 MLOAD SWAP3 POP DUP3 PUSH0 SUB PUSH2 0x202 JUMPI PUSH1 0x40 MLOAD PUSH4 0x1F05DADD PUSH1 0xE2 SHL DUP2 MSTORE PUSH1 0x4 ADD PUSH1 0x40 MLOAD DUP1 SWAP2 SUB SWAP1 REVERT JUMPDEST PUSH32 0x0 TIMESTAMP LT PUSH2 0x242 JUMPI PUSH1 0x40 MLOAD PUSH4 0x335B65A5 PUSH1 0xE1 SHL DUP2 MSTORE PUSH1 0x4 ADD PUSH1 0x40 MLOAD DUP1 SWAP2 SUB SWAP1 REVERT JUMPDEST PUSH1 0x40 DUP1 MLOAD DUP3 DUP2 MSTORE PUSH0 PUSH1 0x20 DUP3 ADD MSTORE KECCAK256 SLOAD PUSH1 0xFF AND DUP1 ISZERO PUSH2 0x273 JUMPI PUSH1 0x40 MLOAD PUSH4 0x7C9A1CF9 PUSH1 0xE0 SHL DUP2 MSTORE PUSH1 0x4 ADD PUSH1 0x40 MLOAD DUP1 SWAP2 SUB SWAP1 REVERT JUMPDEST PUSH1 0x1 DUP1 SLOAD DUP7 PUSH1 0x1 DUP2 EQ PUSH2 0x2A1 JUMPI DUP7 PUSH1 0x80 SHL DUP3 ADD SWAP2 POP PUSH1 0x40 MLOAD DUP6 DUP2 MSTORE PUSH0 PUSH1 0x20 DUP3 ADD MSTORE PUSH1 0x1 PUSH1 0x40 DUP3 KECCAK256 SSTORE POP PUSH2 0x2B8 JUMP JUMPDEST PUSH1 0x40 DUP1 MLOAD DUP7 DUP2 MSTORE PUSH0 PUSH1 0x20 DUP3 ADD MSTORE KECCAK256 PUSH1 0x2 SWAP1 SSTORE SWAP1 DUP7 ADD SWAP1 JUMPDEST POP SWAP1 SSTORE PUSH1 0x40 DUP1 MLOAD DUP7 ISZERO ISZERO DUP2 MSTORE PUSH1 0x20 DUP2 ADD DUP7 SWAP1 MSTORE PUSH1 0x1 PUSH1 0x1 PUSH1 0xA0 SHL SUB DUP5 AND SWAP2 PUSH32 0x5FD1C37ED935A6AB7944ECC8FE147688CA52D9A5D72DF467DF1120D5F03B7DDE SWAP2 ADD PUSH1 0x40 MLOAD DUP1 SWAP2 SUB SWAP1 LOG2 POP POP POP POP POP JUMP JUMPDEST CALLER PUSH1 0x1 PUSH1 0x1 PUSH1 0xA0 SHL SUB PUSH32 0x0 AND EQ PUSH2 0x351 JUMPI PUSH1 0x40 MLOAD PUSH4 0x87CADA7 PUSH1 0xE2 SHL DUP2 MSTORE PUSH1 0x4 ADD PUSH1 0x40 MLOAD DUP1 SWAP2 SUB SWAP1 REVERT JUMPDEST PUSH1 0x40 DUP1 MLOAD DUP3 DUP2 MSTORE PUSH0 PUSH1 0x20 DUP3 ADD DUP2 SWAP1 MSTORE SWAP2 DUP2 KECCAK256 DUP1 SLOAD PUSH1 0xFF AND SWAP2 PUSH32 0x0 SWAP2 DUP4 ISZERO PUSH2 0x3DD JUMPI PUSH4 0x70A08231 PUSH1 0xE0 SHL DUP3 MSTORE DUP6 PUSH1 0x4 DUP4 ADD MSTORE PUSH1 0x20 PUSH0 PUSH1 0x24 DUP5 DUP7 GAS STATICCALL PUSH2 0x3B2 JUMPI PUSH0 PUSH0 REVERT JUMPDEST PUSH0 MLOAD SWAP5 POP PUSH1 0x1 DUP1 SLOAD DUP6 PUSH1 0x2 DUP2 EQ PUSH2 0x3D0 JUMPI DUP8 PUSH1 0x80 SHL DUP3 SUB SWAP2 POP PUSH2 0x3D6 JUMP JUMPDEST DUP8 DUP3 SUB SWAP2 POP JUMPDEST POP SWAP1 SSTORE PUSH0 DUP2 SSTORE JUMPDEST POP POP DUP2 PUSH1 0xFF AND PUSH0 SUB PUSH2 0x3EF JUMPI POP POP POP POP JUMP JUMPDEST DUP4 PUSH1 0x1 PUSH1 0x1 PUSH1 0xA0 SHL SUB AND PUSH32 0x74D1BB241E69CEA6778CD22197F869E97C3E5C5FDA50B71912D4B0C83E88F0A DUP5 PUSH1 0x40 MLOAD PUSH2 0x42A SWAP2 DUP2 MSTORE PUSH1 0x20 ADD SWAP1 JUMP JUMPDEST PUSH1 0x40 MLOAD DUP1 SWAP2 SUB SWAP1 LOG2 POP POP POP POP JUMP JUMPDEST PUSH0 PUSH32 0x0 TIMESTAMP LT ISZERO PUSH2 0x47A JUMPI PUSH1 0x40 MLOAD PUSH4 0x3FC30BD1 PUSH1 0xE1 SHL DUP2 MSTORE PUSH1 0x4 ADD PUSH1 0x40 MLOAD DUP1 SWAP2 SUB SWAP1 REVERT JUMPDEST POP PUSH1 0x1 SLOAD PUSH1 0x1 PUSH1 0x1 PUSH1 0x80 SHL SUB PUSH1 0x1 PUSH1 0x80 SHL DUP3 DIV DUP2 AND SWAP2 AND GT SWAP1 JUMP JUMPDEST PUSH0 PUSH1 0x20 DUP3 DUP5 SUB SLT ISZERO PUSH2 0x4A5 JUMPI PUSH0 PUSH0 REVERT JUMPDEST DUP2 CALLDATALOAD PUSH1 0x1 PUSH1 0x1 PUSH1 0xA0 SHL SUB DUP2 AND DUP2 EQ PUSH2 0x4BB JUMPI PUSH0 PUSH0 REVERT JUMPDEST SWAP4 SWAP3 POP POP POP JUMP JUMPDEST PUSH0 PUSH1 0x20 DUP3 DUP5 SUB SLT ISZERO PUSH2 0x4D2 JUMPI PUSH0 PUSH0 REVERT JUMPDEST DUP2 CALLDATALOAD DUP1 ISZERO ISZERO DUP2 EQ PUSH2 0x4BB JUMPI PUSH0 PUSH0 REVERT INVALID LOG2 PUSH5 0x6970667358 0x22 SLT KECCAK256 0xC3 SAR SWAP9 0x23 PUSH19 0xF79D6861EBDE4C3EBA84E6B82FDC23794FBDB5 0xB5 SWAP2 0xD0 0xD7 DELEGATECALL RJUMPI 0x8A5 PUSH5 0x736F6C6343 STOP ADDMOD 0x1E STOP CALLER "},"methodIdentifiers":{"getResult()":"de292789","removeVotes(address)":"a2ca6dce","token()":"fc0c546a","vote(bool)":"4b9f5c98","voteState(address)":"1a5b6774","votesAgainst()":"91b4384d","votesFor()":"fd4f623c","votingDeadline()":"036ee850"}}}}}