{"project/contracts/SimpleVoting.sol":{"SimpleVoting":{"abi":[{"inputs":[],"name":"voteA","outputs":[],"stateMutability":"nonpayable","type":"function"},{"inputs":[],"name":"voteB","outputs":[],"stateMutability":"nonpayable","type":"function"},{"inputs":[],"name":"votesOptionA","outputs":[{"internalType":"uint256","name":"","type":"uint256"}],"stateMutability":"view","type":"function"},{"inputs":[],"name":"votesOptionB","outputs":[{"internalType":"uint256","name":"","type":"uint256"}],"stateMutability":"view","type":"function"}],"evm":{"bytecode":{"linkReferences":{},"object":"6080604052348015600e575f5ffd5b5060f38061001b5f395ff3fe6080604052348015600e575f5ffd5b50600436106044575f3560e01c80633c8d0bec14604857806355416e06146061578063847d52d6146069578063fb32aedb146071575b5f5ffd5b604f5f5481565b60405190815260200160405180910390f35b60676077565b005b604f60015481565b6067608d565b60015f5f828254608691906099565b9091555050565b6001805f828254608691905b8082018082111560b757634e487b7160e01b5f52601160045260245ffd5b9291505056fea26469706673582212201a53748d74d7a82011e00c648f970427f5f2a16a963e42bc8d7208522d889f1b64736f6c634300081e0033","opcodes":"PUSH1 0x80 PUSH1 0x40 MSTORE CALLVALUE DUP1 ISZERO PUSH1 0xE JUMPI PUSH0 PUSH0 REVERT JUMPDEST POP PUSH1 0xF3 DUP1 PUSH2 0x1B PUSH0 CODECOPY PUSH0 RETURN INVALID PUSH1 0x80 PUSH1 0x40 MSTORE CALLVALUE DUP1 ISZERO PUSH1 0xE JUMPI PUSH0 PUSH0 REVERT JUMPDEST POP PUSH1 0x4 CALLDATASIZE LT PUSH1 0x44 JUMPI PUSH0 CALLDATALOAD PUSH1 0xE0 SHR DUP1 PUSH4 0x3C8D0BEC EQ PUSH1 0x48 JUMPI DUP1 PUSH4 0x55416E06 EQ PUSH1 0x61 JUMPI DUP1 PUSH4 0x847D52D6 EQ PUSH1 0x69 JUMPI DUP1 PUSH4 0xFB32AEDB EQ PUSH1 0x71 JUMPI JUMPDEST PUSH0 PUSH0 REVERT JUMPDEST PUSH1 0x4F PUSH0 SLOAD DUP2 JUMP JUMPDEST PUSH1 0x40 MLOAD SWAP1 DUP2 MSTORE PUSH1 0x20 ADD PUSH1 0x40 MLOAD DUP1 SWAP2 SUB SWAP1 RETURN JUMPDEST PUSH1 0x67 PUSH1 0x77 JUMP JUMPDEST STOP JUMPDEST PUSH1 0x4F PUSH1 0x1 SLOAD DUP2 JUMP JUMPDEST PUSH1 0x67 PUSH1 0x8D JUMP JUMPDEST PUSH1 0x1 PUSH0 PUSH0 DUP3 DUP3 SLOAD PUSH1 0x86 SWAP2 SWAP1 PUSH1 0x99 JUMP JUMPDEST SWAP1 SWAP2 SSTORE POP POP JUMP JUMPDEST PUSH1 0x1 DUP1 PUSH0 DUP3 DUP3 SLOAD PUSH1 0x86 SWAP2 SWAP1 JUMPDEST DUP1 DUP3 ADD DUP1 DUP3 GT ISZERO PUSH1 0xB7 JUMPI PUSH4 0x4E487B71 PUSH1 0xE0 SHL PUSH0 MSTORE PUSH1 0x11 PUSH1 0x4 MSTORE PUSH1 0x24 PUSH0 REVERT JUMPDEST SWAP3 SWAP2 POP POP JUMP INVALID LOG2 PUSH5 0x6970667358 0x22 SLT KECCAK256 BYTE MSTORE8 PUSH21 0x8D74D7A82011E00C648F970427F5F2A16A963E42BC DUP14 PUSH19 0x8522D889F1B64736F6C634300081E00330000 "},"methodIdentifiers":{"voteA()":"55416e06","voteB()":"fb32aedb","votesOptionA()":"3c8d0bec","votesOptionB()":"847d52d6"}}}}}