{"project/contracts/SimpleStorage.sol":{"SimpleStorage":{"abi":[{"inputs":[],"name":"getNumber","outputs":[{"internalType":"uint256","name":"","type":"uint256"}],"stateMutability":"view","type":"function"},{"inputs":[{"internalType":"uint256","name":"num","type":"uint256"}],"name":"setNumber","outputs":[],"stateMutability":"nonpayable","type":"function"},{"inputs":[],"name":"storedNumber","outputs":[{"internalType":"uint256","name":"","type":"uint256"}],"stateMutability":"view","type":"function"}],"evm":{"bytecode":{"linkReferences":{},"object":"6080604052348015600e575f5ffd5b5060ba80601a5f395ff3fe6080604052348015600e575f5ffd5b5060043610603a575f3560e01c806309ce9ccb14603e5780633fb5c1cb146057578063f2c9ecd8146068575b5f5ffd5b60455f5481565b60405190815260200160405180910390f35b60666062366004606e565b5f55565b005b5f546045565b5f60208284031215607d575f5ffd5b503591905056fea26469706673582212200cf668aaa1a8919f982a5eb6458914b17b8d63ca0f5c3aac933d33cc0699e59264736f6c634300081e0033","opcodes":"PUSH1 0x80 PUSH1 0x40 MSTORE CALLVALUE DUP1 ISZERO PUSH1 0xE JUMPI PUSH0 PUSH0 REVERT JUMPDEST POP PUSH1 0xBA DUP1 PUSH1 0x1A PUSH0 CODECOPY PUSH0 RETURN INVALID PUSH1 0x80 PUSH1 0x40 MSTORE CALLVALUE DUP1 ISZERO PUSH1 0xE JUMPI PUSH0 PUSH0 REVERT JUMPDEST POP PUSH1 0x4 CALLDATASIZE LT PUSH1 0x3A JUMPI PUSH0 CALLDATALOAD PUSH1 0xE0 SHR DUP1 PUSH4 0x9CE9CCB EQ PUSH1 0x3E JUMPI DUP1 PUSH4 0x3FB5C1CB EQ PUSH1 0x57 JUMPI DUP1 PUSH4 0xF2C9ECD8 EQ PUSH1 0x68 JUMPI JUMPDEST PUSH0 PUSH0 REVERT JUMPDEST PUSH1 0x45 PUSH0 SLOAD DUP2 JUMP JUMPDEST PUSH1 0x40 MLOAD SWAP1 DUP2 MSTORE PUSH1 0x20 ADD PUSH1 0x40 MLOAD DUP1 SWAP2 SUB SWAP1 RETURN JUMPDEST PUSH1 0x66 PUSH1 0x62 CALLDATASIZE PUSH1 0x4 PUSH1 0x6E JUMP JUMPDEST PUSH0 SSTORE JUMP JUMPDEST STOP JUMPDEST PUSH0 SLOAD PUSH1 0x45 JUMP JUMPDEST PUSH0 PUSH1 0x20 DUP3 DUP5 SUB SLT ISZERO PUSH1 0x7D JUMPI PUSH0 PUSH0 REVERT JUMPDEST POP CALLDATALOAD SWAP2 SWAP1 POP JUMP INVALID LOG2 PUSH5 0x6970667358 0x22 SLT KECCAK256 0xC 0xF6 PUSH9 0xAAA1A8919F982A5EB6 GASLIMIT DUP10 EQ 0xB1 PUSH28 0x8D63CA0F5C3AAC933D33CC0699E59264736F6C634300081E00330000 "},"methodIdentifiers":{"getNumber()":"f2c9ecd8","setNumber(uint256)":"3fb5c1cb","storedNumber()":"09ce9ccb"}}}}}