{"project/contracts/ClickCounter.sol":{"ClickCounter":{"abi":[{"inputs":[],"name":"click","outputs":[],"stateMutability":"nonpayable","type":"function"},{"inputs":[],"name":"count","outputs":[{"internalType":"uint256","name":"","type":"uint256"}],"stateMutability":"view","type":"function"}],"evm":{"bytecode":{"linkReferences":{},"object":"6080604052348015600e575f5ffd5b5060c580601a5f395ff3fe6080604052348015600e575f5ffd5b50600436106030575f3560e01c806306661abd1460345780637d55923d14604d575b5f5ffd5b603b5f5481565b60405190815260200160405180910390f35b60536055565b005b60015f5f82825460649190606b565b9091555050565b80820180821115608957634e487b7160e01b5f52601160045260245ffd5b9291505056fea26469706673582212205c59a7297bf9296c81d569fd83247fe0bf9f7d0951f5a677a17656223aaee51864736f6c634300081e0033","opcodes":"PUSH1 0x80 PUSH1 0x40 MSTORE CALLVALUE DUP1 ISZERO PUSH1 0xE JUMPI PUSH0 PUSH0 REVERT JUMPDEST POP PUSH1 0xC5 DUP1 PUSH1 0x1A PUSH0 CODECOPY PUSH0 RETURN INVALID PUSH1 0x80 PUSH1 0x40 MSTORE CALLVALUE DUP1 ISZERO PUSH1 0xE JUMPI PUSH0 PUSH0 REVERT JUMPDEST POP PUSH1 0x4 CALLDATASIZE LT PUSH1 0x30 JUMPI PUSH0 CALLDATALOAD PUSH1 0xE0 SHR DUP1 PUSH4 0x6661ABD EQ PUSH1 0x34 JUMPI DUP1 PUSH4 0x7D55923D EQ PUSH1 0x4D JUMPI JUMPDEST PUSH0 PUSH0 REVERT JUMPDEST PUSH1 0x3B PUSH0 SLOAD DUP2 JUMP JUMPDEST PUSH1 0x40 MLOAD SWAP1 DUP2 MSTORE PUSH1 0x20 ADD PUSH1 0x40 MLOAD DUP1 SWAP2 SUB SWAP1 RETURN JUMPDEST PUSH1 0x53 PUSH1 0x55 JUMP JUMPDEST STOP JUMPDEST PUSH1 0x1 PUSH0 PUSH0 DUP3 DUP3 SLOAD PUSH1 0x64 SWAP2 SWAP1 PUSH1 0x6B JUMP JUMPDEST SWAP1 SWAP2 SSTORE POP POP JUMP JUMPDEST DUP1 DUP3 ADD DUP1 DUP3 GT ISZERO PUSH1 0x89 JUMPI PUSH4 0x4E487B71 PUSH1 0xE0 SHL PUSH0 MSTORE PUSH1 0x11 PUSH1 0x4 MSTORE PUSH1 0x24 PUSH0 REVERT JUMPDEST SWAP3 SWAP2 POP POP JUMP INVALID LOG2 PUSH5 0x6970667358 0x22 SLT KECCAK256 TLOAD MSIZE 0xA7 0x29 PUSH28 0xF9296C81D569FD83247FE0BF9F7D0951F5A677A17656223AAEE51864 PUSH20 0x6F6C634300081E00330000000000000000000000 "},"methodIdentifiers":{"click()":"7d55923d","count()":"06661abd"}}}}}