{
  "_format": "hh3-artifact-1",
  "contractName": "ClickCounter",
  "sourceName": "contracts/ClickCounter.sol",
  "abi": [
    {
      "inputs": [],
      "name": "click",
      "outputs": [],
      "stateMutability": "nonpayable",
      "type": "function"
    },
    {
      "inputs": [],
      "name": "count",
      "outputs": [
        {
          "internalType": "uint256",
          "name": "",
          "type": "uint256"
        }
      ],
      "stateMutability": "view",
      "type": "function"
    }
  ],
  "bytecode": "0x6080604052348015600e575f5ffd5b5060c580601a5f395ff3fe6080604052348015600e575f5ffd5b50600436106030575f3560e01c806306661abd1460345780637d55923d14604d575b5f5ffd5b603b5f5481565b60405190815260200160405180910390f35b60536055565b005b60015f5f82825460649190606b565b9091555050565b80820180821115608957634e487b7160e01b5f52601160045260245ffd5b9291505056fea26469706673582212205c59a7297bf9296c81d569fd83247fe0bf9f7d0951f5a677a17656223aaee51864736f6c634300081e0033",
  "linkReferences": {},
  "deployedLinkReferences": {},
  "immutableReferences": {},
  "inputSourceName": "project/contracts/ClickCounter.sol",
  "buildInfoId": "solc-0_8_30-3af3a42a20bbb9b8bd3ec1cb5007f64f5a550783"
}